:100000000C9463000C948B000C948B000C94D8041B
:100010000C94D8040C94D8040C948B000C948B0092
:100020000C9450050C948B000C948B000C948B005A
:100030000C948B000C948B000C948B000C948B0014
:100040000C9436040C948B000C94A6040C9480043D
:100050000C948B000C948B000C948B000C948B00F4
:100060000C948B000C948B000000000024002700EF
:100070002A0000000008000201000003040700003D
:1000800000000000000000000000230026002900FE
:1000900000000000250028002B00040404040404D0
:1000A0000404020202020202030303030303010227
:1000B00004081020408001020408102001020408F6
:1000C00010200306170D11241FBECFEFD8E0DEBFAE
:1000D000CDBF24E0A0EFB1E001C01D92AA35B20768
:1000E000E1F711E0A0E0B1E0E4E7FBE102C0059038
:1000F0000D92A03FB107D9F710E0C2E6D0E004C0EE
:100100002197FE010E94A70DC136D107C9F70E94B1
:10011000E2060C94AD0D0C940000AFEFB2E0119626
:100120008C93119790E0FC01E255FF4FE4911496F7
:10013000EC931497FC01E656FF4FE491F0E0EE0FCC
:10014000FF1FEA57FF4F8591949113969C938E93CE
:10015000129708950F931F93CF93DF93E091FF03BE
:10016000F091000440916002808510E0481708F08B
:1001700064C0142F117000915F0201114FC0842FD1
:1001800090E0880F991FE80FF91F0184F285E02D98
:100190002CEE3FEF112311F024E130E0C0915D021D
:1001A000D0915E022C0F3D1FC90163E470E00E94F4
:1001B0007F0DE617F70760F0C90168E270E00E9462
:1001C0007F0D6F5F7F4F81E090E06E177F0710F526
:1001D0002C0F3D1FC90163E470E00E947F0DE617FC
:1001E000F70750F0C90168E270E00E947F0D6F5F71
:1001F0007F4F6E177F0760F42C0F3D1FC90163E42A
:1002000070E00E947F0DE617F707E8F41FEF15C0B6
:1002100082E090E090935C0280935B020F5F00931A
:100220005F0280915B0290915C020817190628F02A
:1002300010925F024F5F40936002812FDF91CF9158
:100240001F910F910895C90168E270E00E947F0D2F
:100250006F5F7F4F6E177F07C8F283E090E0DACFC1
:100260006F927F928F929F92AF92BF92CF92DF92C6
:10027000EF92FF921F93CF93DF93182FEA01E09143
:10028000FF03F09100043F964B0184E1880E911C1E
:1002900093E4C92ED12CC401B6010E947F0D5B01ED
:1002A00048E2E42EF12CC401B7010E947F0D3B010E
:1002B0008FEF681A780A6497CE01B6010E947F0D0D
:1002C0004B01CE01B7010E947F0DEB012196245115
:1002D0003109C901B6010E947F0D6B01C901B70147
:1002E0000E947F0D6F5F7F4F20E030E0A901808189
:1002F00091818A159B0568F16816790650F1220FE5
:10030000331F441F551F8281938188159905F0F092
:10031000C817D90700F121603496115041F7209396
:10032000F3033093F4034093F5035093F60381E015
:10033000DF91CF911F91FF90EF90DF90CF90BF9012
:10034000AF909F908F907F906F9008958C159D0532
:1003500010F480E0EDCF68177907D8F3DDCFFC010A
:10036000538D448D252F30E0842F90E0821B930B1A
:10037000541710F0CF96089501970895FC01918DC0
:10038000828D981761F0A28DAE0FBF2FB11D5D96C3
:100390008C91928D9F5F9F73928F90E008958FEF65
:1003A0009FEF0895FC01918D828D981731F0828D19
:1003B000E80FF11D858D90E008958FEF9FEF089570
:1003C000FC01918D228D892F90E0805C9F4F821BD4
:1003D00091098F7399270895FC01A48DA80FB92F57
:1003E000B11DA35ABF4F2C91848D90E001968F735D
:1003F0009927848FA689B7892C93A089B1898C917C
:10040000837080648C93938D848D981306C00288CA
:10041000F389E02D80818F7D80830895EF92FF9294
:100420000F931F93CF93DF93EC0181E0888F9B8D17
:100430008C8D98131AC0E889F989808185FF15C0D1
:100440009FB7F894EE89FF896083E889F9898081F4
:100450008370806480839FBF81E090E0DF91CF91C3
:100460001F910F91FF90EF900895F62E0B8D10E0E5
:100470000F5F1F4F0F731127E02E8C8D8E110CC054
:100480000FB607FCFACFE889F989808185FFF5CF9F
:10049000CE010E94EC01F1CFEB8DEC0FFD2FF11D91
:1004A000E35AFF4FF0829FB7F8940B8FEA89FB89DC
:1004B00080818062CFCFCF93DF93EC01888D88233A
:1004C000B9F0AA89BB89E889F9898C9185FD03C0B7
:1004D000808186FD0DC00FB607FCF7CF8C9185FF9C
:1004E000F2CF808185FFEDCFCE010E94EC01E9CFF4
:1004F000DF91CF91089581E692E00E94E00121E032
:10050000892B09F420E0822F089580E090E0892B68
:1005100029F00E947B0281110C940000089590E064
:10052000FC01EE58FF4F2491FC01E255FF4F34913E
:10053000FC01E656FF4FE491EE23C9F0222339F087
:10054000233001F1A8F4213019F1223029F1F0E033
:10055000EE0FFF1FE057FF4FA591B4918FB7F894AE
:10056000EC91611126C030953E233C938FBF0895D6
:100570002730A9F02830C9F0243049F78091800055
:100580008F7D03C0809180008F7780938000DFCFC4
:1005900084B58F7784BDDBCF84B58F7DFBCF809111
:1005A000B0008F778093B000D2CF8091B0008F7D64
:1005B000F9CF3E2BDACFCF93DF9390E0FC01E255E9
:1005C000FF4F249186569F4FFC0184918823D1F0E0
:1005D00090E0880F991FFC01E859FF4FA591B49155
:1005E000FC01E057FF4FC591D49161110EC09FB738
:1005F000F8948C91E22FE0958E238C932881E2234E
:10060000E8839FBFDF91CF9108958FB7F894EC9165
:10061000E22BEC938FBFF6CFAF92BF92CF92DF92D7
:10062000EF92FF920F931F93CF93DF936C017B01A7
:100630008B01040F151FEB015E01AE18BF08C01738
:10064000D10759F06991D601ED91FC910190F081AB
:10065000E02DC6010995892B79F7C501DF91CF916E
:100660001F910F91FF90EF90DF90CF90BF90AF90D0
:10067000089520913302309134022817390771F41C
:100680009091310280913202981741F0E09131024D
:10069000F0E0E051FE4F808190E008958FEF9FEFF2
:1006A00008950895EF92FF920F931F93CF93DF93D6
:1006B000DC015C96ED90FC905D97E114F10479F417
:1006C00081E090E013969C938E93129790E080E0E7
:1006D000DF91CF911F910F91FF90EF900895519668
:1006E000ED91FC91529750968C915097982F909540
:1006F0000FB75E962C915E97122F127021FD6095B8
:10070000F8942081112319F1282B2083E7012197E8
:10071000F1F728E0462F50E0308160FF1AC0382BF7
:100720003083E7012197F1F7BA017595679521505C
:1007300089F7112381F08081892380830FBF5C9624
:100740008D919C910197F1F781E090E0C1CF292331
:10075000DCCF3923E5CF9081892BEFCF2091330275
:10076000309134022817390771F4809132022091B8
:10077000310290E0805C9F4F821B910960E470E041
:100780000E94930D089590E080E008952091330237
:100790003091340228173907B9F4909131028091D1
:1007A0003202981789F0E0913102F0E0E051FE4FFB
:1007B00080812091310230E02F5F3F4F2F7333272C
:1007C0002093310290E008958FEF9FEF089590E01D
:1007D00080E008958EBD00000DB407FEFDCF8EB5FC
:1007E00008950F931F93CF93DF93182F092FCCE019
:1007F000D4E060E08A810E948F02802F0E94EA0389
:10080000812F0E94EA03182F1F7080E00E94EA03E4
:10081000082F61E08A810E948F02C801DF91CF9189
:100820001F910F910895FB0101900020E9F7319786
:10083000AF01461B570BDC01ED91FC910280F38167
:10084000E02D09940F931F93CF93DF93EC010E9447
:1008500013048C0164E271E0CE010E941304800F46
:10086000911FDF91CF911F910F9108951F920F92C9
:100870000FB60F9211242F933F938F939F93AF93B3
:10088000BF938091570290915802A0915902B09164
:100890005A023091560223E0230F2D3758F5019666
:1008A000A11DB11D209356028093570290935802C8
:1008B000A0935902B0935A02809152029091530230
:1008C000A0915402B09155020196A11DB11D8093D3
:1008D000520290935302A0935402B0935502BF91D9
:1008E000AF919F918F913F912F910F900FBE0F90DD
:1008F0001F90189526E8230F0296A11DB11DD2CF97
:100900001F920F920FB60F9211242F933F934F9384
:100910005F936F937F938F939F93AF93BF93EF9367
:10092000FF9381E692E00E94EC01FF91EF91BF916D
:10093000AF919F918F917F916F915F914F913F9177
:100940002F910F900FBE0F901F9018951F920F922E
:100950000FB60F9211242F938F939F93EF93FF93D2
:10096000E0917102F09172028081E0917702F09142
:10097000780282FD1BC0908180917A028F5F8F7315
:1009800020917B02821741F0E0917A02F0E0EF596A
:10099000FD4F958F80937A02FF91EF919F918F91F8
:1009A0002F910F900FBE0F901F9018958081F4CF5C
:1009B0001F920F920FB60F9211242F933F934F93D4
:1009C0005F936F937F938F939F93AF93BF93EF93B7
:1009D000FF93E0913302F0913402309749F0A685FD
:1009E000B7858585968D91FF14C09C918923A1F4CC
:1009F000FF91EF91BF91AF919F918F917F916F91F7
:100A00005F914F913F912F910F900FBE0F901F90CC
:100A100018959C91892361F7A389B4899C91858954
:100A2000809589238C93868997890197F1F7608D4A
:100A3000718DA685B785558538E020E0CB010197FB
:100A4000F1F7822F90E095958795282F4C914523BB
:100A500009F02068315091F7868D81FD20958091B5
:100A6000320290E001968F73992730913102381746
:100A700099F0A0913202B0E0A051BE4F2C93809328
:100A80003202828D938D0197F1F7A389B4898C91FD
:100A90009589892B8C93ACCF868D8160868FF1CF21
:100AA0001F920F920FB60F9211242F933F934F93E3
:100AB0005F936F937F938F939F93AF93BF93EF93C6
:100AC000FF93E0910103F091020390818091030371
:100AD000982320910403309105032F3F320731F012
:100AE0002F5F3F4F30930503209304038091FF0253
:100AF000811135C0911116C0209104033091050376
:100B00002536310558F010920603309309032093DF
:100B1000080381E0809307038093FF02109205038E
:100B20001092040380913504813041F480913404A3
:100B3000911161C061E0811161C02D9AFF91EF9127
:100B4000BF91AF919F918F917F916F915F914F91E5
:100B50003F912F910F900FBE0F901F90189580918D
:100B6000FF028130A1F49923E9F2E09107038E0F8F
:100B700080930703F0E0EE0FFF1FE150FD4F20913F
:100B80000403309105033287218782E0C5CF80912D
:100B9000FF02823039F5911119C0E091070381E01D
:100BA000E03720F08093060383E0B6CF8E0F80936A
:100BB0000703F0E0EE0FFF1FE150FD4F209104030B
:100BC000309105033287218781E0A6CF209104036D
:100BD000309105032536310508F4A4CF83E08093D6
:100BE000FF02A0CF8091FF02833009F09BCF9923B1
:100BF00009F494CF97CF882321F060E00E948F0200
:100C00009DCF2D989BCFCF92DF92EF92FF921092C3
:100C100064021092630298EEC92E93E0D92EE12C63
:100C2000F12CC0926502D0926602E0926702F092C7
:100C3000680284E091E0909362028093610285EC07
:100C400090E090936E0280936D0284EC90E090931C
:100C5000700280936F0280EC90E090937202809318
:100C6000710281EC90E0909374028093730282ECA5
:100C700090E0909376028093750286EC90E09093DA
:100C800078028093770210927A0210927B0210927F
:100C90007C0210927D028FEF92E090934E0480933D
:100CA0004D0480E00E948D001092340410921804CC
:100CB00010921704C0921904D0921A04E0921B04F7
:100CC000F0921C0486E191E0909316048093150441
:100CD00010922C0410922B0410922E0410922D04CA
:100CE0001092300410922F041092320410923104AA
:100CF000609133046E7F6D7F6093330466956170FD
:100D000081E0682786E00E948F0261E086E00E9411
:100D1000DB02E4EBF0E0E491E0932504E0EAF0E0AC
:100D2000E491F0E0EE0FFF1FE057FF4F85919491A3
:100D3000909327048093260460E085E00E94DB0204
:100D40008091330481FD04C061E085E00E948F0240
:100D500085E080932104E3EBF0E0E491E09322044A
:100D6000EFE9F0E0E491F0E0EE0FFF1FEA57FF4FEC
:100D700085919491909324048093230488E893E1CF
:100D800090930D0480930C048AE080930E041092DB
:100D90000F041092100410921104109212048EEF9E
:100DA00092E090931404809313048FEF92E0909359
:100DB00000048093FF0382E0FF90EF90DF90CF90DC
:100DC0000C948D00CF93DF93CDB7DEB7A2970FB60B
:100DD000F894DEBF0FBECDBF789484B5826084BD29
:100DE00084B5816084BD85B5826085BD85B581602F
:100DF00085BD80916E00816080936E0010928100AD
:100E00008091810082608093810080918100816067
:100E10008093810080918000816080938000809128
:100E2000B10084608093B1008091B00081608093B4
:100E3000B00080917A00846080937A0080917A007B
:100E4000826080937A0080917A00816080937A003A
:100E500080917A00806880937A001092C10061E0EE
:100E600083E10E94DB0261E081E00E94DB0261E03D
:100E700082E10E94DB0261E083E00E94DB0261E02C
:100E800084E00E94DB0260E081E00E948F0260E06B
:100E900082E10E948F0260E083E00E948F0260E0A6
:100EA00084E00E948F0260E08FE00E948F0260E089
:100EB00083E10E948F0261E08AE00E94DB0261E030
:100EC0008AE00E948F021FB7F8948091300281114E
:100ED00027C0E4EAF0E08491E8EBF0E09491E82F99
:100EE000F0E0EE0FFF1FE859FF4FA591B491EC9190
:100EF000E92321F461E08AE00E948F0261E08AE048
:100F00000E94DB028CB580618CBD8CB580648CBD89
:100F100061E08DE00E94DB0261E08BE00E94DB0279
:100F2000809130028F5F809330021FBF81E58CBDBE
:100F30001DBC1092300410922F0410922E041092B7
:100F40002D0410922C0410922B048FE190E09093CA
:100F500032048093310490912104963108F047C007
:100F600021E030E030932C0420932B042DE130E07D
:100F700030932E0420932D042DE030E03093300484
:100F800020932F042091680084E0983048F031E0ED
:100F90009E3008F430E081E001C0880F3A95EAF70E
:100FA000822B809368002DE630E0983050F02BE6DD
:100FB00030E09E3030F02CE630E0963110F030E03A
:100FC00020E03093290420932804292F30E0983022
:100FD00008F0D0C081E001C0880F9A95EAF78093AD
:100FE0002A0480913104909132040197F1F78091A5
:100FF0002F0490913004892B49F1E0913302F09154
:10100000340224E0E531F20709F1309739F0A38981
:10101000B4899C918589809589238C938091330430
:101020008E7F80933304109232021092310285E158
:1010300094E09093340280933302E0912804F0917D
:101040002904808190912A04892B808367E271E0D2
:1010500085E194E00E94220482E08093B0008093B6
:10106000B10084E68093B3008093B4001092B20084
:101070008091FF02833011F41092FF0284E080938C
:101080007000CC24CA941FE0D12EE12CF12C8824CE
:101090008A94982C5401B4E02B2E312C8091FF02BD
:1010A000833009F0D0C180913502811109C06DE310
:1010B00071E081E692E00E94220481E08093350293
:1010C00088E093E09093430280934202809107036B
:1010D0008093440290910603992321F01092060315
:1010E00010920703909106039093450210923A02E2
:1010F00010923B0210923C0210923D0290E89093B5
:10110000F20320910A0330910B03265831092C3544
:10111000310588F48430D9F580910C0390910D034A
:101120008197489740F480910E0390910F030897A0
:10113000089708F468C0809144028A3108F498C086
:10114000E0914202F0914302208131812A30310541
:1011500008F06DC010923E0280923A0290923B02DB
:10116000A0923C02B0923D0281E08093F20385E1BF
:1011700090E058C09E3040F42850310981E001C011
:10118000880F2A95EAF72BCF2E503109F7CF8434F8
:1011900091F680910C0390910D03825491098F97E1
:1011A00050F620E332E040E956E060E372E080E28E
:1011B0000E943001882309F4BECFE0914202F091F1
:1011C0004302EA57FF4F808191810897089708F002
:1011D000B2CF8091F3039091F403A091F503B09105
:1011E000F60380933A0290933B02A0933C02B093A3
:1011F0003D0280E280933E0287E090E090933702C8
:10120000809336020FC010923E0280923A02909272
:101210003B02A0923C02B0923D0281E88093F2032F
:1012200087E090E09093E9038093E803CFC02281A8
:101230003381245231092A313105D0F443E050E0A2
:1012400060E0412C512C320190E04817590708F01A
:1012500055C024813581285031092830310540F4AA
:10126000268137812231310598F120323105D8F1BC
:1012700081E080936002E9E7F3E0F0935E02E0939F
:101280005D0210925F020E94AA00813009F07EC1C7
:10129000412C512C320110E0E091FF03F091000449
:1012A000908580916002891708F03FC00E94AA00D3
:1012B000082F0E94AA0001112EC0813009F066C1DA
:1012C000440C551C661C771C689440F81F5FE4CFE3
:1012D0002930310568F22131310550F6440C551C96
:1012E000661C771C06C0440C551C661C771C689451
:1012F00040F86F5F4E5F5F4F3496A7CF60933E021A
:1013000040923A0250923B0260923C0270923D023F
:1013100085E190E073CF013009F038C1811136C109
:10132000440C551C661C771CD1CF812F90E0909304
:10133000F1038093F0034092F3035092F403609220
:10134000F5037092F603842D8F7390E09093ED0374
:101350008093EC03920146E0369527954A95E1F794
:101360002F7133273093EB032093EA039201222756
:101370003071232B31F4805C9F4F9093ED03809369
:10138000EC0380E853FC88E88093F20380E190E06E
:101390009093E9038093E80381859285843C99408A
:1013A00028F48091F20381608093F20310933E024F
:1013B00040923A0250923B0260923C0270923D028F
:1013C00080E190E0909337028093360269ED71E0FE
:1013D00085E194E00E94220400913A0210913B02C0
:1013E00020913C0230913D0219A2BE016F5D7F4FFA
:1013F000D901C8018F709927AA27BB2794E0369599
:101400002795179507959A95D1F78A300CF00DC35B
:10141000805DFB018293BF01011511052105310596
:1014200039F7EF2B21F085E194E00E94130464E288
:1014300071E085E194E00E9413048091FF02833003
:1014400011F41092FF022FB7F894809157029091F7
:101450005802A0915902B0915A022FBF8A3F9105BC
:10146000A105B10508F485C080E096E00E94F10373
:10147000A0910C04B0910D049C010E94700DA70175
:1014800096010E94430D309347022093460280E468
:1014900096E00E94F103A0910C04B0910D049C0110
:1014A0000E94700DA70196010E94430D30934902DE
:1014B0002093480280E896E00E94F103A0910C047A
:1014C000B0910D049C010E94700DA70196010E942D
:1014D000430D30934B0220934A0280EC96E00E9429
:1014E000F103A0910C04B0910D049C010E94700DB9
:1014F000A70196010E94430D30934D0220934C02A8
:1015000080E097E00E94F103A0910C04B0910D04DB
:101510009C010E94700DA70196010E94430D30931B
:101520004F0220934E0280E497E00E94F103A091C5
:101530000C04B0910D049C010E94700DA70196014E
:101540000E94430D309351022093500280E897E0AF
:101550000E94F103A0910C04B0910D049C010E9423
:10156000700DA70196010E94430D30935302209302
:10157000520280E090E0892B09F490CD0E947B021A
:10158000882309F488CD0E94000085CDE091FF03F7
:10159000F09100048385948588974D9708F048C0A2
:1015A000858596850C970B9708F042C083E0809361
:1015B00060028CEB91E090935E0280935D0210924A
:1015C0005F020E94AA00813099F50E94AA00811151
:1015D0002FC0412C512C320110E0E091FF03F0911B
:1015E0000004908580916002891708F079C00E94FC
:1015F000AA008AA31330B9F00E94AA00082F133062
:1016000021F40E94AA00081313C0EAA1E13009F0F6
:101610005CC001110DC0440C551C661C771C6894FD
:1016200040F81F5FDACF0E94AA009AA1981721F311
:10163000809144028C3309F0A6C0E0914202F091FF
:10164000430282819381865891098D35910508F076
:101650009AC084819581CE978C9708F094C026E239
:1016600032E04CE256E064EF71E08CE10E94300120
:10167000882309F488C0E0914202F0914302EA58BD
:10168000FF4F808191810797089708F07CC0809177
:10169000F3039091F403A091F503B091F6038093C6
:1016A0003A0290933B02A0933C02B0933D028CE13E
:1016B00080933E02E5E0F0E0F0933702E0933602DB
:1016C000F093E903E093E80381CEFAA1F111B0CFE2
:1016D000013009F0ADCF440C551C661C771CA1CF1E
:1016E000812F90E09093F1038093F0034092F303F5
:1016F0005092F4036092F5037092F603242D30E0CB
:10170000852D143268F580E88093F2033093ED0361
:101710002093EC03852D90E09093EB038093EA03F4
:1017200060FE03C088E88093F20381859285833749
:101730009A4028F48091F20381608093F20381E162
:1017400090E09093E9038093E80310933E02409267
:101750003A0250923B0260923C0270923D0232CEBD
:1017600090E89093F20357FE03C098E89093F20339
:101770003093ED032093EC038F7790E09093EB038D
:101780008093EA03D2CF40914402E0914202F0916B
:10179000430282819381423289F49C0128503109AD
:1017A0002730310558F4DF01AE5BBF4F2D913C91DE
:1017B000285031092730310508F45AC08D57910956
:1017C0008735910508F466C0E0914202F09143022A
:1017D00082819381835491098F9780F48091440290
:1017E000843009F090C0848195818197489730F4C6
:1017F000868197810897089708F4B1C0E091FF03AC
:10180000F09100048085823209F0B9C0E091420273
:10181000F0914302828193810497059708F0AFC04D
:10182000848195810B970A9708F0A9C02CE033E0DA
:101830004CE157E064E071E08FE00E9430018823C2
:1018400009F49DC08091F3039091F403A091F503F6
:10185000B091F60380933A0290933B02A0933C022E
:10186000B0933D028FE080933E0283E090E0C6CCCF
:1018700010923E0280923A0290923B02A0923C0269
:10188000B0923D0281E08093F2033092E90320920E
:10189000E8039CCD443208F497CF84819581CE979C
:1018A0008C9708F091CF2EE032E04AE256E06EE0ED
:1018B00072E080E10E943001882309F485CFE09135
:1018C0004202F0914302EA5BFF4F808191810897C9
:1018D000079708F079CF8091F3039091F403A091DA
:1018E000F503B091F60380933A0290933B02A093E4
:1018F0003C02B0933D0280E180933E023092370279
:1019000020923602C2CF843408F478CF8481958146
:10191000825491098F9708F071CF20E332E040E9BB
:1019200056E060E372E080E20E943001882309F40F
:1019300065CF8091F3039091F403A091F503B091EA
:10194000F60380933A0290933B02A0933C02B0933B
:101950003D0280E280933E02E2E1F0E0ADCE1092E3
:101960003E0280923A0290923B02A0923C02B092D8
:101970003D0281E08093F20382E190E053CC00913C
:101980004402063008F459CDE0914202F09143023E
:10199000329625EC3DE94CE151E813E08AE0682EEF
:1019A0008481958161917191689E2001699E500C9E
:1019B0001124DB01AA0FBB1FAA0FBB1FAA0FBB1F5D
:1019C000712C4A165B0688F0669ED001679EB00DAA
:1019D000112473E0880F991F7A95E1F762E0762E63
:1019E000A817B90710F07724739463E971E080E0D9
:1019F00091E00E94330D9B01AC0127251F5F01136D
:101A0000CFCF20933A0230933B0240933C02509355
:101A10003D0280E280933E0210923702109236021D
:101A20001092E9031092E803D1CC895CF2CC86E1F4
:101A300091E0909316048093150480913302909165
:101A400034028551944071F4E0912804F091290406
:101A5000908180912A04809589238083109234029A
:101A6000109233020895DB018F939F930E94650DBE
:101A7000BF91AF91A29F800D911DA39F900DB29F2A
:101A8000900D11240895A1E21A2EAA1BBB1BFD0183
:101A90000DC0AA1FBB1FEE1FFF1FA217B307E4074D
:101AA000F50720F0A21BB30BE40BF50B661F771FA5
:101AB000881F991F1A9469F7609570958095909585
:101AC0009B01AC01BD01CF0108950E94700DA59F3F
:101AD000900DB49F900DA49F800D911D1124089529
:101AE000A29FB001B39FC001A39F700D811D11245F
:101AF000911DB29F700D811D1124911D0895AA1B87
:101B0000BB1B51E107C0AA1FBB1FA617B70710F0E8
:101B1000A61BB70B881F991F5A95A9F7809590951A
:101B2000BC01CD01089597FB072E16F4009407D051
:101B300077FD09D00E947F0D07FC05D03EF49095FB
:101B400081959F4F0895709561957F4F0895EE0F91
:101B5000FF1F0590F491E02D099410E0C2E6D0E05B
:101B600004C0FE010E94A70D2196C336D107C9F714
:041B7000F894FFCF17
:101B7400000000000E020C03AF015B02E001BE0195
:101B8400D2010000000052030C03E7035103AE032B
:101B9400C60339030D0A00486F6232486F6F642030
:101BA4005374617274696E67202E2E2E005468651A
:101BB4002066756E6374696F6E206465636F646517
:101BC4002826726573756C747329292069732064DF
:101BD40065707265636174656420616E64206D6113
:101BE40079206E6F7420776F726B20617320657833
:101BF40070656374656421204A7573742075736518
:101C0400206465636F6465282920776974686F753B
:101C140074206120706172616D6574657220616EFB
:101C24006420497252656365697665722E646563E2
:101C34006F6465644952446174612E3C6669656CE5
:101C4400646E616D653E202E00526563656976653C
:101C54006420495220636F6D6D616E643A20000008
:00000001FF
